:020000040800F2
:10000000E80500209D010008D316000861140008CF
:10001000D116000831060008C31B000800000000CC
:10002000000000000000000000000000D7160008DB
:100030003306000800000000D5160008D916000895
:10004000B7010008B7010008B7010008B7010008B0
:10005000B7010008B7010008B7010008B7010008A0
:10006000B7010008B7010008B7010008B701000890
:10007000B7010008B7010008B7010008B701000880
:10008000B7010008B7010008B7010008B701000870
:10009000B7010008B7010008B7010008B701000860
:1000A000B7010008B7010008B7010008B701000850
:1000B000B7010008B517000815180008B7010008B7
:1000C000B7010008B7010008B7010008B701000830
:1000D000B7010008B7010008B7010008B701000820
:1000E000B7010008B7010008B7010008B701000810
:1000F000B7010008B7010008B7010008B701000800
:10010000B7010008B7010008B7010008B7010008EF
:10011000B7010008B7010008B7010008B7010008DF
:10012000B7010008B7010008B7010008B7010008CF
:10013000B7010008B7010008B7010008B7010008BF
:10014000B7010008B7010008B7010008B7010008AF
:10015000B7010008B7010008B7010008B70100089F
:10016000B7010008B7010008B7010008B70100088F
:10017000B7010008B7010008B7010008000000003F
:10018000B7010008B7010008DFF80CD000F03EFA14
:1001900000480047651D0008E80500200648804724
:1001A00006480047FEE7FEE7FEE7FEE7FEE7FEE75C
:1001B000FEE7FEE7FEE7FEE7611700088901000899
:1001C0002DE9F05F0546002092469B46884606468C
:1001D000814640241BE0284641464746224600F01F
:1001E00070F953465A46C01A914110D31146184629
:1001F000224600F057F92D1A67EB01084F462246B8
:100200000120002100F04EF917EB00094E41201E9D
:10021000A4F10104DFDC484631462A464346BDE8E6
:10022000F09FD2B201E000F8012B491EFBD27047CB
:100230000022F6E710B513460A4604461946FFF7B2
:10024000F0FF204610BD2DE9FE4F81EA030404F0C3
:10025000004421F0004100944FF0000B23F00043D4
:1002600050EA01045ED052EA03045BD0C3F30A549F
:10027000C1F30A552C44A4F2F3340194A0FB0254B8
:10028000C1F3130141F48011C3F3130343F480134A
:1002900001FB024400FB034E840A970A44EA81549E
:1002A00047EA8357A4FB076802958D0A05FB07857B
:1002B0004FEA932C04FB0C542705029D4FEA065885
:1002C00047EA1637B5EB08056EEB070C870E920E62
:1002D00047EA811742EA8312A7FB0201B6EB0B0142
:1002E00064EB00042B0D43EA0C335E1844EB1C5006
:1002F000DA465146E7FB0201C5F313044FEA0B331C
:1003000043EA14534FEA0432019C43EA0603A4F182
:100310000C040294009CCDE900B400F028F903B06D
:10032000BDE8F08F00200146F9E72DE9F04D81EAA4
:10033000030404F0004B21F0004514464FF0000A7E
:1003400023F0004150EA050220D054EA01021DD0FA
:10035000C5F30A570246C5F31303C1F31300C1F3F3
:100360000A5640F4801543F48013A7EB0608101BCF
:10037000D64608F2FD3873EB050002D308F10108F8
:1003800001E092185B41B8F1000F03DA002001464A
:10039000BDE8F08D00204FF48011064684460EE043
:1003A000171B73EB050705D3121B63EB050306430D
:1003B0004CEA010C49084FEA300092185B4150EAC0
:1003C0000107EDD152EA030012D082EA040083EA69
:1003D0000501084305D0101BAB4106D201220023C2
:1003E00006E000224FF0004302E06FF001025310DC
:1003F0001AEB06004CEB085110EB0A0041EB0B0125
:10040000BDE8F04D00F0A4B870B5C1F30A5201F098
:1004100000450024C1F3130140F2FF3341F4801181
:100420009A4201DA002070BD40F233439A42A2F2B0
:10043000334203DC524200F044F800E090402C4389
:10044000F1D0404270BD00F0004230F000400AD0D0
:10045000C10D01F56071C0F3160042EA0151C208F6
:1004600040071143704700200146704701F00043E8
:1004700030B421F0004150EA010206D00A0DA2F585
:100480006072C1F31301002A02DC30BC0020704707
:10049000440F44EAC104C100E01830BC00EBC25074
:1004A00000F01FB8202A04DB203A00FA02F10020F5
:1004B00070479140C2F1200320FA03F319439040A2
:1004C0007047202A04DB203A21FA02F0002170470D
:1004D00021FA02F3D040C2F12002914008431946AC
:1004E00070470029A8BF7047401C490008BF20F092
:1004F0000100704710B4B0FA80FC00FA0CF050EA2A
:10050000010404BF10BC704749B1CCF1200421FAAA
:1005100004F411FA0CF118BF012121430843A3EBA5
:100520000C01CB1D4FEA00614FEA102042BF0020B2
:1005300010BC704700EBC35010440029A4BF10BC8E
:100540007047401C490008BF20F0010010BC7047F4
:1005500010B5141E73F1000408DA401C41F10001CB
:1005600092185B411A4301D120F0010010BD2DE922
:10057000F04D92469B4611B1B1FA81F202E0B0FA19
:1005800080F220329046FFF78DFF04460F4640EA86
:100590000A0041EA0B0153465A46084313D011465C
:1005A00053EA010019D0C8F140025046FFF789FF15
:1005B00005460E46504659464246FFF773FF08432C
:1005C00005D0012004E020463946BDE8F08D00202A
:1005D000054346EAE0762C4337430A986305E40A6C
:1005E000A0EB08000022FD0A44EA47540A3002D575
:1005F00000200146E9E7010510196941DDE90845D8
:1006000000196941BDE8F04DA2E70000064C074D16
:1006100006E0E06840F0010394E8070098471034D2
:10062000AC42F6D3FFF7B4FDD01D0008F01D000862
:10063000FEE77047704700002DE9F84FDFF87CB106
:1006400000224FF001084FF0030A4FF00F090BF1A1
:10065000040E00BF0B6808FA02F42340A3426ED1D7
:100660004D68022D01D0122D0ED1D50800EB850C5E
:10067000DCF820505607F70E09FA07F6B5430E6965
:10068000BE402E43CCF82060066855000F790AFA68
:1006900005FC07F0030726EA0C06AF403743076066
:1006A0004E68012E05D0022E03D0112E01D0122E3D
:1006B0000ED18668CF6826EA0C06AF4037438760C4
:1006C0004668A6430C79C4F3001494403443446054
:1006D000C6688C6826EA0C06AC403443C4604C689B
:1006E000E40065D5364C256845F4804525602468CE
:1006F00022F0030504F480440094324C2E19D6F8FD
:10070000084895072F0F09FA07F5AC432E4DA8426C
:1007100001D1002524E02D4DA84201D101251FE083
:100720002B4DA84201D102251AE02A4DA84201D141
:10073000032515E0284DA84202D1042510E037E03A
:10074000264DA84201D105250AE0254DA84201D138
:10075000062505E0234DA84201D1072500E0082524
:10076000BD402543C6F80858DBF800405D464E689A
:100770009C43F60300D51C432C60DEF80040754610
:100780004E689C43B60300D51C432C600B4D0835C6
:100790002C684E689C43F60200D51C432C60074D24
:1007A0000C352C684E689C43B60200D51C432C6067
:1007B000521C102AFFF44EAFBDE8F88F003C0140F8
:1007C0004438024000300140000002400004024072
:1007D00000080240000C02400010024000140240D9
:1007E00000180240001C02400AB1816170470904F0
:1007F000FBE700000148806870470000D40000203B
:10080000024881680278114481607047D40000205A
:100810000B4810B5016841F400710160016841F4B2
:1008200080610160016841F480710160032000F083
:100830006FF8002000F006F800F024F8002010BD4A
:10084000003C024070B50D4D04464FF47A71287893
:10085000B1FBF0F00A490968B1FBF0F000F0C0FA12
:1008600048B9102C07D200222146501E00F030F863
:1008700000206C6070BD012070BD0000D40000201D
:10088000E00000200A4808B5016841F48041016099
:10089000006800F4804000900548001F016841F0A6
:1008A00080510160006800F08050009008BD000099
:1008B00044380240002809DB00F01F02012191406A
:1008C0004009800000F1E020C0F8001170470000EE
:1008D000F0B40E4B1B680C46C3F30223C3F10705AB
:1008E000042D00D90425191D072901D2002300E099
:1008F000DB1E012606FA05F1491E214099409E4063
:10090000761E16403143F0BC01F05CB90CED00E0FE
:10091000064900F0070208684FF6FF03184040EA56
:100920000220034A10430860704700000CED00E00D
:100930000000FA052DE9F0470E46050065D0DFF806
:100940001481D8F80000F7B200F00F00B04207D2CF
:1009500088F80070D8F8000000F00F00B04254D1C1
:1009600028683D4C810712D5400703D5206840F424
:10097000E05020602878000703D5206840F46040EC
:1009800020602068A96820F0F000084320602878E3
:10099000C0072DD0304968680839012812D00228D4
:1009A00013D0032811D00968890700292DDA21689E
:1009B00021F0030101432160FFF71CFF814641F252
:1009C000883A0EE009688903EFE709688901ECE7D6
:1009D000FFF710FFA0EB0901514502D90320BDE844
:1009E000F0872068696800F00C00B0EB810FEFD150
:1009F000D8F80010404601F00F01B14207D9077046
:100A0000006800F00F00B04201D00120E7E728782D
:100A1000400705D52068E96820F4E05008432060CD
:100A20002878000706D52068296920F4604040EA4C
:100A3000C100206000F016F82168084AC1F30311D4
:100A4000515CC840064908600020FFF7FBFE00200B
:100A5000C5E70000003C024008380240C01D000805
:100A6000E0000020154810B5006810F00C02144892
:100A700013D04110042A0FD0082A0ED10F4C241F86
:100A80002268236802F03F025B0207D52068C0F3AA
:100A90008810A0FB010106E0084610BD2168C1F3E3
:100AA0008811A1FB00010023FFF78AFB2168C1F335
:100AB0000141491C4900B0FBF1F010BD083802406B
:100AC0000024F4002DE9F84F050076D02878DFF8EF
:100AD000F8B2BE4CC00749D0DBF800105846C1F34D
:100AE0008101012908D00068C0F3810002280AD1E1
:100AF000201D0068400206D52068800336D568684E
:100B00000028E2D032E06868B0F5803F10D0B0F540
:100B1000A02F206810D020F480302060206820F4BE
:100B2000802020606868A0B1FFF764FE06460CE0F4
:100B3000206840F48030F4E740F480202060F7E73C
:100B4000FFF758FE801B642873D820688003F7D510
:100B50000CE0FFF74FFE064605E000BFFFF74AFE38
:100B6000801B6428F0D820688003F7D42878DFF849
:100B7000608280074FF000093ED5DBF80010584630
:100B800011F00C0F09D00068C0F3810002280BD1CE
:100B90008D48001F0068400206D42068800715D5E4
:100BA000E868012809D111E0E868B8B10120C8F867
:100BB0000000FFF71FFE064605E002E1FFF71AFE00
:100BC000801B0228C0D820688007F7D520682969D3
:100BD00020F0F80040EAC10020600DE0C8F8009065
:100BE000FFF708FE064604E0FFF704FE801B02281C
:100BF0001FD820688007F7D42878000722D5724EC6
:100C0000744869696C3671B101210160FFF7F2FD2A
:100C1000074604E0FFF7EEFDC01B022809D8306844
:100C20008007F7D50EE0C0F80090FFF7E3FD074618
:100C300005E083E0FFF7DEFDC01B02287ED83068A8
:100C40008007F7D42878400768D5DFF87CA1002713
:100C50000AF1380ADAF80000C0000BD4DAF8001004
:100C600041F08051CAF80010DAF80000012700F0C6
:100C700080500090584E3068C00510D4306840F461
:100C800080703060FFF7B6FD009005E0FFF7B2FD21
:100C90000099401A022851D83068C005F6D54A4E4E
:100CA000A868683601280FD00528306810D020F0D9
:100CB00001003060306820F004003060A868B8B1EE
:100CC000FFF798FD00900FE0306840F00100F4E776
:100CD00040F004003060F7E7FFF78CFD0099411AFF
:100CE00041F28830814264D830688007F4D50EE044
:100CF000FFF780FD009007E0FFF77CFD0099411AA7
:100D000041F28830814254D830688007F4D42FB142
:100D1000DAF8001021F08051CAF80010A869C0B3B9
:100D2000DBF80010C1F3810102294AD002284846AD
:100D300007D0C8F86000FFF75DFD00E039E0054628
:100D40003AE04746C8F86000FFF754FD064604E065
:100D5000FFF750FD801B02282BD820688001F7D4B4
:100D6000D5E907010843A96A1C4A490802EB014179
:100D70006A6A41EA8211084395F82C1040EA016141
:100D80001148001F016001203866FFF733FD05465A
:100D900005E014E0FFF72EFD401B022809D820686B
:100DA0008001F7D50BE000BFFFF724FD401B0228B0
:100DB00002D90320BDE8F88F20688001F4D4002018
:100DC000F8E70120F6E7000008380240003802404A
:100DD00000004742800E4742007000400000FFFFC5
:100DE00010B5401EB0F1807F01D3012010BD4FF03F
:100DF000E02460610F21601700F0E4FE0020A06194
:100E000007202061002010BD7047704770B590F832
:100E10003C20012A19D0012400F83C4F02224270E4
:100E200050F83C3C5A689D6822F070060A68496890
:100E3000324325F0800529435A6050F83C2C9160DC
:100E4000447000210170084670BD022070BD10B5CD
:100E5000040003D094F83D0010B107E0012010BD5C
:100E6000002084F83C00204600F00CF8022084F8B2
:100E70003D00211D206800F03BFD012084F83D006D
:100E8000002010BD08B5154A0168154891420ED1E1
:100E9000016841F0020101600068002200F00200D8
:100EA000009011461D20FFF713FD1D2010E00D4A94
:100EB000914211D1016841F00401016000680022F3
:100EC00000F00400009011461E20FFF701FD1E20D7
:100ED000BDE80840FFF7EEBC08BD0000000400407C
:100EE00040380240000800400168CA6842F0010230
:100EF000CA600068816801F00701062903D0016813
:100F000041F0010101600020704770B5044690F87F
:100F10003C00012817D0012584F83C50022084F8B9
:100F20003D002068826822F0770222F47F428260CE
:100F30000868502830D00DDC20284DD005DC98B34F
:100F400010283BD148E0022070BD302844D0402812
:100F500034D139E0602828D0702806D0B0F5805F01
:100F60002CD0B0F5005F29D10AE0CB68D1E901218E
:100F7000206800F02EFD2068816841F0770109E0CB
:100F8000CB68D1E90121206800F023FD2068816849
:100F900041F48041816011E0CA684968206800F02E
:100FA000EDFD5021206807E016E0CA684968206816
:100FB00000F0F5FD6021206800F015FD84F83D503B
:100FC000002084F83C0070BDCA684968206800F0C1
:100FD000D5FD40212068EFE7226801461046EBE787
:100FE0002DE9F0410D46040003D094F83D0018B1FE
:100FF00008E00120BDE8F081002084F83C00204694
:1010000000F03AF8022084F83D002068816844F23C
:10101000070291438160211D206800F069FC22686D
:1010200090689169166A2B68AF69034340F20330F8
:10103000814341EA0721A868EF6908434FF6FC4164
:101040008843E96840EA0720014328692F6A0001C4
:1010500040EA0730084369686D6926F0AA0646EA47
:101060000515294393602268906120680162012080
:1010700084F83D000020BDE730B587B00446142158
:101080006846FFF7D5F8224D226800212148022347
:101090000124AA421BD11F4A1432156845F00105EC
:1010A0001560126802F001020592026842F0100217
:1010B0000260006800F0100005904FF4206000907E
:1010C000CDE90131CDE90314694613481CE0B2F1C2
:1010D000804F1BD10F4A1032156845F0010515608D
:1010E000126802F001020592026842F001020260F9
:1010F000006800F00100059003200090CDE9013167
:10110000CDE9031469460548FFF796FA07B030BDEC
:101110000000014030380240001002400000024050
:1011200010B50446006891B1042904D001220021C1
:1011300000F042FC206801225FF0040100F03CFC5A
:101140002068016841F001010160002010BD01220A
:101150000021F3E7704770B50446006801694FF05D
:101160000005C943890715D4C168C943890711D44B
:10117000E91E0161012020772068806980072046F0
:1011800002D0FFF7E7FF04E000F0C0F8204600F0CF
:1011900042F9257720680169C943490717D4C16816
:1011A000C943490713D46FF004010161022020777D
:1011B0002068806910F4407F204602D0FFF7CAFF04
:1011C00004E000F0A3F8204600F025F92577206818
:1011D0000169C943090716D4C168C943090712D474
:1011E0006FF008010161042020772068C069800742
:1011F000204602D0FFF7AEFF04E000F087F820465B
:1012000000F009F9257720680169C943C90617D498
:10121000C168C943C90613D46FF0100101610820E9
:1012200020772068C06910F4407F204602D0FFF785
:1012300091FF04E000F06AF8204600F0ECF8257712
:1012400020680169C943C90708D1C168C943C907F2
:1012500004D1891E0161204600F000F9206801696F
:10126000C943090609D4C168C943090605D46FF00A
:10127000800101612046FFF7C7FD20680169C9436D
:10128000490609D4C168C943490605D46FF0400135
:101290000161204600F0E3F820680169C94389062E
:1012A0000BD4C168C943890607D46FF020010161DE
:1012B0002046BDE87040FFF7A8BD70BD10B586B0F0
:1012C000044614216846FEF7B3FF0D4920688842A2
:1012D00014D10C480021026842F00102026000684B
:1012E00000F001000590C02000900220CDE901012E
:1012F000CDE9031069460448FFF79EF906B010BD1A
:10130000000400403038024000000240704770B5D1
:10131000044690F83C000D4601280DD0012684F8C3
:101320003C60022084F83D0042B1042A18D0082A0B
:101330002AD00C2A4DD139E0022070BD206800F07F
:101340005BFB2068816941F0080181612068816947
:1013500021F004018161206881692A69114311E04B
:10136000206800F079FB2068816941F400618161A7
:101370002068816921F480618161206881692A691E
:1013800041EA0221816124E0206800F09BFB206893
:10139000C16941F00801C1612068C16921F00401FF
:1013A000C1612068C1692A69114311E0206800F019
:1013B000BDFB2068C16941F40061C1612068C16959
:1013C00021F48061C1612068C1692A6941EA022172
:1013D000C16184F83D60002084F83C0070BD10B508
:1013E000040003D094F83D0010B107E0012010BDC7
:1013F000002084F83C00204600F00CF8022084F81D
:101400003D00211D206800F073FA012084F83D00A2
:10141000002010BD7047704710B5044600680122D7
:1014200000F0CAFA0B492068884202D00A49884273
:1014300003D1416C41F4004141642068816801F0AE
:101440000701062903D0016841F001010160002075
:1014500010BD0000000001400004014070477047CB
:10146000FEE7000030B587B014216846FEF7E0FEC5
:101470001A480024016841F080010160016801F010
:1014800080010591016841F001010160016801F0EE
:1014900001010591016841F004010160016801F05A
:1014A00004010591016841F01001016000680C4DD4
:1014B00000F010000590002230212846FFF794F933
:1014C000302000900120CDE90104022003906946FC
:1014D0002846FFF7B1F807B030BD000030380240B1
:1014E0000008024010B58CB024216846FEF7A0FE2B
:1014F00000241748099415490A94C0E900144FF6CE
:10150000FF71C0E902410461446184610320CDE9B7
:1015100000040120CDE902040F210491CDE905402A
:10152000CDE9074169460A48FFF75AFD08B1FFF7C0
:1015300081F8099409A906480A94FFF767FC002876
:1015400001D0FFF777F80CB010BD0000000001409B
:10155000E400002010B58CB024216846FEF768FE38
:101560000024164809944FF080410A94C0E9001401
:101570004FF6FF71C0E90241046184610320CDE9A7
:1015800000040120CDE902040F210491CDE90540BA
:10159000CDE9074169460948FFF722FD08B1FFF789
:1015A00049F8099409A905480A94FFF72FFC002877
:1015B00001D0FFF73FF80CB010BD0000240100205F
:1015C00010B58EB000240794089409940A940B94E3
:1015D0001C2168460C94FEF72BFE2248204901602E
:1015E000A721C0E9011442F20F71C0E9031484611C
:1015F000FFF72DFC08B1FFF71DF84FF4805007905E
:1016000007A91848FFF781FC08B1FFF713F8154840
:10161000FFF7E5FE08B1FFF70DF80B940BA9114891
:101620000C94FFF7F3FB08B1FFF704F86020CDE955
:1016300000040294002269460A480494FFF767FEFA
:1016400008B1FEF7F7FF042269460648FFF75FFE80
:1016500008B1FEF7EFFF0348FFF730FE0EB010BDF4
:10166000000400406401002010B586B00024174833
:101670000094019402940394049413490594016026
:10168000A721C0E9011440F2E731C0E903148461E5
:10169000FFF7DDFB08B1FEF7CDFF4FF4805000905F
:1016A00069460A48FFF731FC08B1FEF7C3FF04940E
:1016B00004A906480594FFF7A9FB002801D0FEF70E
:1016C000B9FF06B010BD000000080040A4010020D2
:1016D000FEE7704770477047FFF792B830B593B098
:1016E00030216846FEF7A4FD14210CA8FEF7A0FDEA
:1016F00019480025016841F080510160006800F040
:10170000805011901548016841F4804101600068E3
:10171000022400F480401190012000900004019008
:101720008001CDE9064008AA0420A82182E8130020
:101730000B906846FFF7C6F90CA90F2081E831002D
:101740004FF4A0500F90E002109005210CA8FFF775
:10175000F1F813B030BD0000403802400070004086
:101760001048016841F4700101600F48016841F0C0
:10177000010101600C4A00210832116002680B4B24
:101780001A400260031D0A4A1A60026822F480228D
:10179000026005480C300160024958068039086033
:1017A0007047000088ED00E000380240FFFFF6FEC1
:1017B0001030002470B5144D05F1800495ED010A38
:1017C000A06800F01FFA206195ED020AE06800F0C1
:1017D0006DFA606122690021002A00DC2161002885
:1017E00000DC616109482B78021D012B08D02169BA
:1017F000016060691060BDE870400548FFF7ABBC50
:1018000001601160F7E70000000000203404004090
:10181000640100202DE9F0472D4E2DED048B7078EA
:10182000401CC0B2707003284BD1DFF8A89000258F
:101830007570D9F8240006F1800400B2A060002879
:1018400000DAA56094ED020AB8EEC00A10EE100AA4
:10185000FEF7F9FD9FED208B53EC182BFEF7F3FC00
:101860009FED1F9B53EC192BFEF7EDFCFEF7FEFDE1
:101870004FF080480746A061D8F8240000B2E0602D
:10188000002800DAE56094ED030AB8EEC00A10EE15
:10189000100AFEF7D8FD53EC182BFEF7D4FC53ECDE
:1018A000192BFEF7D0FCFEF7E1FDE061C9F82450EA
:1018B000C8F824500C498F4201DC884201DD012028
:1018C00030700A48BDEC048BBDE8F047FFF743BC1D
:1018D00000000020000001407F6ABC749318C43FE0
:1018E000000000000000D03F00004842A40100209A
:1018F000F0B50268254C264D264E274F274B4FF05A
:10190000804CA04209D0604507D0A84205D0B04223
:1019100003D0B84201D0984204D122F0700E4A6838
:1019200042EA0E02A0421BD0604519D0A84217D04F
:10193000B04215D0B84213D0984211D0184DA842E9
:101940000ED0184DA8420BD0174DA84208D0174D05
:10195000A84205D0164DA84202D0164DA84203D188
:1019600022F44075CA682A434D6922F080022A4356
:1019700002608A68C2620A688262A04201D098420C
:1019800001D10969016301214161F0BD00000140FD
:101990000004004000080040000C0040000401402A
:1019A0000040014000440140004801400018004050
:1019B000001C00400020004010B501F01F03012171
:1019C000046A99408C430462016A9A40114301629F
:1019D00010BD10B5846842EA032224F47F440A4310
:1019E0002243826010BD826822F070020A4342F0F6
:1019F0000701816070470000F0B5026A22F0010221
:101A00000262036A42688469124E24F073050C680E
:101A10002C4323F002058B682B430D4DA84201D0C7
:101A2000B04205D123F00807CB683B4323F0040301
:101A3000A84201D0B04205D14D6922F4407215434D
:101A40008A692A4342608461496841630362F0BD48
:101A50000000014000040140F0B5026A22F01002CB
:101A60000262026A436884690D6824F4E64444EA29
:101A700005248D6822F0200242EA05120F4D104E17
:101A8000A84201D0B04206D1CF6822F0800242EADB
:101A9000071222F04002A84201D0B04207D14D699E
:101AA00023F4406343EA85038D6943EA8503436079
:101AB0008461496881630262F0BD0000000001405A
:101AC00000040140F0B5026A22F480720262026AE8
:101AD0004368C46922F4007224F073050C68124E46
:101AE0002C438D6842EA05220E4DA84201D0B04237
:101AF00006D1CF6822F4006242EA072222F4806213
:101B0000A84201D0B04207D14D6923F4405343EAC3
:101B100005138D6943EA05134360C4614968C163D5
:101B20000262F0BD000001400004014030B5026ACD
:101B300022F480520262046A4268C3690D6823F489
:101B4000E64343EA05238D6824F4005444EA05344F
:101B5000084DA84202D0084DA84204D14D6922F494
:101B6000804242EA85124260C361496801640462AE
:101B700030BD0000000001400004014010B5036AC0
:101B8000046A24F001040462846924F0F00444EA45
:101B9000021423F00A020A438461026210BD10B5E8
:101BA000036A23F0100303628369046A23F4704319
:101BB00043EA023224F0A00343EA01118261016288
:101BC00010BDFEE70907090E002804DB00F1E02044
:101BD00080F80014704700F00F0000F1E02080F85A
:101BE000141D704702E008C8121F08C1002AFAD16C
:101BF00070477047002001E001C1121F002AFBD18D
:101C000070470000F1EE000A10B520EE200A0446ED
:101C100010EE100AFEF717FC9FED1D1B53EC112B65
:101C2000FEF783FBFEF7F0FB001B00EE100A1A48DC
:101C30001A4AB8EEC00AD0ED160A90ED061A70EEF8
:101C4000600A60EE810A90ED071A41EE000A90EDFD
:101C5000151A70EE810A10EE901AC0ED150A80ED8B
:101C6000160A914203DD9FED0E0A80ED150A0D4A1A
:101C7000416D914202D800EE101A03E09FED0A0A6E
:101C800080ED150ABDEEC00A10EE100A10BD00006E
:101C90007F6ABC749318C43F00000020003C1C46BF
:101CA000003C1C46003C1CC6003C1CC6F1EE000A71
:101CB00010B520EE200A044610EE100AFEF7C3FB12
:101CC0009FED211B53EC112BFEF72FFBFEF79CFB26
:101CD000001B00EE100A1E481E4AB8EEC00AD0EDE6
:101CE000190A90ED081A00F1800170EE600A60EEAA
:101CF000810AC1ED0D0A90ED091A61EE001A41EE5C
:101D0000000AC1ED0E1A90ED181A70EE810A10EE5D
:101D1000901AC0ED180A80ED190A914203DD9FED7B
:101D20000E0A80ED180A0D4A016E914202D800EEAB
:101D3000101A03E09FED0A0A80ED180ABDEEC00AF2
:101D400010EE100A10BD00007F6ABC749318C43FE7
:101D50000000002000401C4600401C4600401CC6FD
:101D600000401CC6FEF754FDFFF7B8FCFFF77AFBF6
:101D7000FFF7B8FBFFF7EEFBFFF722FCFFF774FC61
:101D800000210B48FFF748FB04210948FFF744FBFB
:101D90003C210848FFF7C4F93C210748FFF7C0F988
:101DA0000648FFF7A1F80248FFF79EF8FEE700009B
:101DB00064010020E400002024010020A401002090
:101DC00000000000000000000102030406070809EB
:101DD000F01D000800000020E4000000E41B0008E3
:101DE000D41E0008E400002004050000F41B0008D5
:101DF000000000000000A0400000A0400000000023
:101E000000000000000000000000A041CDCC4C3ECE
:101E10000000A041CDCC4C3E0000A041CDCCCC3D3B
:101E2000000000000000A041CDCCCC3D000000002F
:101E300000000000000000000000000000000000A2
:101E40000000000000000000000000000000000092
:101E50000000000000000000000000000000000082
:101E60000000000000000000000000000000000072
:101E70000000000000000000000000000000000062
:101E80000000000000000000000000000000000052
:101E90000000000000000000000000000000000042
:101EA0000000000000000000000000000000000032
:101EB0000000000000000000000000000000000022
:101EC0000000000001000000100000000000000001
:041ED0000024F400F6
:040000050800018965
:00000001FF
